{
  "_format": "hh-sol-artifact-1",
  "contractName": "LoomXLending",
  "sourceName": "contracts/LoomXLending.sol",
  "abi": [
    {
      "inputs": [],
      "stateMutability": "nonpayable",
      "type": "constructor"
    },
    {
      "anonymous": false,
      "inputs": [
        {
          "indexed": true,
          "internalType": "address",
          "name": "borrower",
          "type": "address"
        },
        {
          "indexed": false,
          "internalType": "uint128",
          "name": "amount",
          "type": "uint128"
        },
        {
          "indexed": false,
          "internalType": "uint64",
          "name": "interest",
          "type": "uint64"
        }
      ],
      "name": "LoanApproved",
      "type": "event"
    },
    {
      "anonymous": false,
      "inputs": [
        {
          "indexed": true,
          "internalType": "address",
          "name": "borrower",
          "type": "address"
        },
        {
          "indexed": false,
          "internalType": "uint128",
          "name": "amount",
          "type": "uint128"
        },
        {
          "indexed": false,
          "internalType": "uint64",
          "name": "interest",
          "type": "uint64"
        }
      ],
      "name": "LoanRepaid",
      "type": "event"
    },
    {
      "anonymous": false,
      "inputs": [
        {
          "indexed": true,
          "internalType": "address",
          "name": "borrower",
          "type": "address"
        },
        {
          "indexed": false,
          "internalType": "uint128",
          "name": "amount",
          "type": "uint128"
        },
        {
          "indexed": false,
          "internalType": "uint64",
          "name": "dueDate",
          "type": "uint64"
        }
      ],
      "name": "LoanRequested",
      "type": "event"
    },
    {
      "inputs": [],
      "name": "admin",
      "outputs": [
        {
          "internalType": "address",
          "name": "",
          "type": "address"
        }
      ],
      "stateMutability": "view",
      "type": "function"
    },
    {
      "inputs": [
        {
          "internalType": "address",
          "name": "_borrower",
          "type": "address"
        },
        {
          "internalType": "uint64",
          "name": "_interest",
          "type": "uint64"
        }
      ],
      "name": "approveLoan",
      "outputs": [],
      "stateMutability": "nonpayable",
      "type": "function"
    },
    {
      "inputs": [
        {
          "internalType": "address",
          "name": "borrower",
          "type": "address"
        }
      ],
      "name": "canRequestLoan",
      "outputs": [
        {
          "internalType": "bool",
          "name": "",
          "type": "bool"
        }
      ],
      "stateMutability": "view",
      "type": "function"
    },
    {
      "inputs": [
        {
          "internalType": "address",
          "name": "borrower",
          "type": "address"
        }
      ],
      "name": "getLoan",
      "outputs": [
        {
          "internalType": "uint128",
          "name": "amount",
          "type": "uint128"
        },
        {
          "internalType": "uint64",
          "name": "interest",
          "type": "uint64"
        },
        {
          "internalType": "uint64",
          "name": "dueDate",
          "type": "uint64"
        },
        {
          "internalType": "bool",
          "name": "approved",
          "type": "bool"
        },
        {
          "internalType": "bool",
          "name": "repaid",
          "type": "bool"
        }
      ],
      "stateMutability": "view",
      "type": "function"
    },
    {
      "inputs": [],
      "name": "repayLoan",
      "outputs": [],
      "stateMutability": "payable",
      "type": "function"
    },
    {
      "inputs": [
        {
          "internalType": "uint128",
          "name": "_amount",
          "type": "uint128"
        },
        {
          "internalType": "uint64",
          "name": "_durationInDays",
          "type": "uint64"
        }
      ],
      "name": "requestLoan",
      "outputs": [],
      "stateMutability": "nonpayable",
      "type": "function"
    }
  ],
  "bytecode": "0x60a0604052348015600f57600080fd5b503360805260805161073c61002f60003960006101b8015261073c6000f3fe6080604052600436106100555760003560e01c806333481fc91461005a5780635f562e8c14610114578063925bf2f014610164578063d6a2849c14610186578063f851a440146101a6578063f966ade7146101f2575b600080fd5b34801561006657600080fd5b506100cb610075366004610616565b6001600160a01b0316600090815260208190526040902080546001909101546001600160801b0382169267ffffffffffffffff600160801b8404811693600160c01b9004169160ff808216926101009092041690565b604080516001600160801b03909616865267ffffffffffffffff9485166020870152939092169284019290925290151560608301521515608082015260a0015b60405180910390f35b34801561012057600080fd5b5061015461012f366004610616565b6001600160a01b03166000908152602081905260409020546001600160801b03161590565b604051901515815260200161010b565b34801561017057600080fd5b5061018461017f366004610650565b6101fa565b005b34801561019257600080fd5b506101846101a1366004610683565b610298565b3480156101b257600080fd5b506101da7f000000000000000000000000000000000000000000000000000000000000000081565b6040516001600160a01b03909116815260200161010b565b610184610412565b6001600160a01b03821660008181526020818152604091829020805467ffffffffffffffff8616600160801b810267ffffffffffffffff60801b198316811784556001808501805460ff1916909117905585516001600160801b03918216919093161782529281019290925292917fd64790003c023fb7390b7b5a002bcbb3b9837f034bbaaa7f91007b3c01efa510910160405180910390a2505050565b33600090815260208190526040902080546001600160801b0316156102f45760405162461bcd60e51b815260206004820152600d60248201526c22bc34b9ba34b733903637b0b760991b60448201526064015b60405180910390fd5b600061030383620151806106c3565b6103179067ffffffffffffffff16426106ed565b6040805160a0810182526001600160801b038781168083526000602080850182815267ffffffffffffffff8881168789018181526060890186815260808a0187815233808952888852978c90209a518b54965193518616600160c01b026001600160c01b0394909616600160801b026001600160c01b03199097169a16999099179490941716919091178755905160019096018054955115156101000261ff00199715159790971661ffff1990961695909517959095179093558451918252918101929092529293507fc03843841397a3c5d87f73d7fb8657223484ce6fea6ef19e37c5ab0443d5262591015b60405180910390a250505050565b336000818152602081905260409020546001600160801b031661046d5760405162461bcd60e51b8152602060048201526013602482015272131bd85b88191bd95cc81b9bdd08195e1a5cdd606a1b60448201526064016102eb565b33600081815260208190526040902060010154610100900460ff16156104cb5760405162461bcd60e51b8152602060048201526013602482015272131bd85b88185b1c9958591e481c995c185a59606a1b60448201526064016102eb565b336000908152602081905260409020600181015460ff166105225760405162461bcd60e51b8152602060048201526011602482015270131bd85b881b9bdd08185c1c1c9bdd9959607a1b60448201526064016102eb565b805460009061054b9067ffffffffffffffff600160801b820416906001600160801b03166106ed565b9050803410156105945760405162461bcd60e51b8152602060048201526014602482015273125b9cdd59999a58da595b9d081c185e5b595b9d60621b60448201526064016102eb565b60018201805461010061ff00199091161790558154604080516001600160801b0383168152600160801b90920467ffffffffffffffff16602083015233917f8ac1df0a7287aadc239a5dae46d9ee8c2217bc00178c6ff97f3ab0f29be3f7e79101610404565b80356001600160a01b038116811461061157600080fd5b919050565b60006020828403121561062857600080fd5b610631826105fa565b9392505050565b803567ffffffffffffffff8116811461061157600080fd5b6000806040838503121561066357600080fd5b61066c836105fa565b915061067a60208401610638565b90509250929050565b6000806040838503121561069657600080fd5b82356001600160801b038116811461066c57600080fd5b634e487b7160e01b600052601160045260246000fd5b67ffffffffffffffff81811683821602908116908181146106e6576106e66106ad565b5092915050565b80820180821115610700576107006106ad565b9291505056fea2646970667358221220821dc0a9156dc00e7938e28244aa5425dbba02e6fe0718bbd90316f32f18851664736f6c634300081c0033",
  "linkReferences": {},
  "deployedLinkReferences": {}
}