{
  "_format": "hh-sol-artifact-1",
  "contractName": "LoomXLending",
  "sourceName": "contracts/LoomXLending.sol",
  "abi": [
    {
      "inputs": [],
      "stateMutability": "nonpayable",
      "type": "constructor"
    },
    {
      "anonymous": false,
      "inputs": [
        {
          "indexed": true,
          "internalType": "address",
          "name": "borrower",
          "type": "address"
        },
        {
          "indexed": false,
          "internalType": "uint256",
          "name": "amount",
          "type": "uint256"
        }
      ],
      "name": "LoanApproved",
      "type": "event"
    },
    {
      "anonymous": false,
      "inputs": [
        {
          "indexed": true,
          "internalType": "address",
          "name": "borrower",
          "type": "address"
        },
        {
          "indexed": false,
          "internalType": "uint256",
          "name": "amount",
          "type": "uint256"
        }
      ],
      "name": "LoanRepaid",
      "type": "event"
    },
    {
      "anonymous": false,
      "inputs": [
        {
          "indexed": true,
          "internalType": "address",
          "name": "borrower",
          "type": "address"
        },
        {
          "indexed": false,
          "internalType": "uint256",
          "name": "amount",
          "type": "uint256"
        }
      ],
      "name": "LoanRequested",
      "type": "event"
    },
    {
      "inputs": [],
      "name": "admin",
      "outputs": [
        {
          "internalType": "address",
          "name": "",
          "type": "address"
        }
      ],
      "stateMutability": "view",
      "type": "function"
    },
    {
      "inputs": [
        {
          "internalType": "address",
          "name": "_borrower",
          "type": "address"
        },
        {
          "internalType": "uint256",
          "name": "_interest",
          "type": "uint256"
        }
      ],
      "name": "approveLoan",
      "outputs": [],
      "stateMutability": "nonpayable",
      "type": "function"
    },
    {
      "inputs": [
        {
          "internalType": "address",
          "name": "user",
          "type": "address"
        }
      ],
      "name": "getLoan",
      "outputs": [
        {
          "components": [
            {
              "internalType": "uint256",
              "name": "loanAmount",
              "type": "uint256"
            },
            {
              "internalType": "uint256",
              "name": "interest",
              "type": "uint256"
            },
            {
              "internalType": "uint256",
              "name": "dueDate",
              "type": "uint256"
            },
            {
              "internalType": "bool",
              "name": "approved",
              "type": "bool"
            },
            {
              "internalType": "bool",
              "name": "repaid",
              "type": "bool"
            }
          ],
          "internalType": "struct LoomXLending.Loan",
          "name": "",
          "type": "tuple"
        }
      ],
      "stateMutability": "view",
      "type": "function"
    },
    {
      "inputs": [
        {
          "internalType": "address",
          "name": "",
          "type": "address"
        }
      ],
      "name": "loans",
      "outputs": [
        {
          "internalType": "uint256",
          "name": "loanAmount",
          "type": "uint256"
        },
        {
          "internalType": "uint256",
          "name": "interest",
          "type": "uint256"
        },
        {
          "internalType": "uint256",
          "name": "dueDate",
          "type": "uint256"
        },
        {
          "internalType": "bool",
          "name": "approved",
          "type": "bool"
        },
        {
          "internalType": "bool",
          "name": "repaid",
          "type": "bool"
        }
      ],
      "stateMutability": "view",
      "type": "function"
    },
    {
      "inputs": [],
      "name": "repayLoan",
      "outputs": [],
      "stateMutability": "payable",
      "type": "function"
    },
    {
      "inputs": [
        {
          "internalType": "uint256",
          "name": "_amount",
          "type": "uint256"
        },
        {
          "internalType": "uint256",
          "name": "_durationInDays",
          "type": "uint256"
        }
      ],
      "name": "requestLoan",
      "outputs": [],
      "stateMutability": "nonpayable",
      "type": "function"
    }
  ],
  "bytecode": "0x6080604052348015600f57600080fd5b50600080546001600160a01b031916331790556106d5806100316000396000f3fe6080604052600436106100555760003560e01c806333481fc91461005a57806373b4086b146100c95780639f63f5c314610144578063aa452fa614610166578063f851a44014610186578063f966ade7146101be575b600080fd5b34801561006657600080fd5b5061007a6100753660046105eb565b6101c6565b6040516100c09190600060a08201905082518252602083015160208301526040830151604083015260608301511515606083015260808301511515608083015292915050565b60405180910390f35b3480156100d557600080fd5b506101186100e43660046105eb565b6001602081905260009182526040909120805491810154600282015460039092015490919060ff8082169161010090041685565b60408051958652602086019490945292840191909152151560608301521515608082015260a0016100c0565b34801561015057600080fd5b5061016461015f36600461060d565b61025e565b005b34801561017257600080fd5b50610164610181366004610637565b61036a565b34801561019257600080fd5b506000546101a6906001600160a01b031681565b6040516001600160a01b0390911681526020016100c0565b61016461048c565b6101fc6040518060a001604052806000815260200160008152602001600081526020016000151581526020016000151581525090565b506001600160a01b0316600090815260016020818152604092839020835160a08101855281548152928101549183019190915260028101549282019290925260039091015460ff80821615156060840152610100909104161515608082015290565b6000546001600160a01b031633146102ae5760405162461bcd60e51b815260206004820152600e60248201526d139bdd08185d5d1a1bdc9a5e995960921b60448201526064015b60405180910390fd5b6001600160a01b0382166000908152600160205260409020600381015460ff161561030e5760405162461bcd60e51b815260206004820152601060248201526f105b1c9958591e48185c1c1c9bdd995960821b60448201526064016102a5565b600181810183905560038201805460ff1916909117905580546040519081526001600160a01b038416907f93e6d20b2134c2834b2d150cb5d87de9e77bde683f944766c3c45b793ba8ddad9060200160405180910390a2505050565b33600090815260016020526040902054156103b75760405162461bcd60e51b815260206004820152600d60248201526c22bc34b9ba34b733903637b0b760991b60448201526064016102a5565b6040805160a081018252838152600060208201529081016103db836201518061066f565b6103e5904261068c565b81526000602080830182905260409283018290523380835260018083529284902085518155918501519282019290925583830151600282015560608401516003909101805460809095015115156101000261ff00199215159290921661ffff199095169490941717909255517f06c22e520074f676b380b03ffba06f2ccf61e51cbeee2a4e084b80a19d2fc237906104809085815260200190565b60405180910390a25050565b336000908152600160205260409020600381015460ff166104de5760405162461bcd60e51b815260206004820152600c60248201526b139bdd08185c1c1c9bdd995960a21b60448201526064016102a5565b6003810154610100900460ff16156105295760405162461bcd60e51b815260206004820152600e60248201526d105b1c9958591e481c995c185a5960921b60448201526064016102a5565b6001810154815461053a919061068c565b34101561057f5760405162461bcd60e51b8152602060048201526013602482015272125b9cdd59999a58da595b9d08185b5bdd5b9d606a1b60448201526064016102a5565b60038101805461ff00191661010017905560405133907fc200a1f31dd659e356e0f112c82558e25f49f7b0f84438691cd96f5cb3558823906105c49034815260200190565b60405180910390a250565b80356001600160a01b03811681146105e657600080fd5b919050565b6000602082840312156105fd57600080fd5b610606826105cf565b9392505050565b6000806040838503121561062057600080fd5b610629836105cf565b946020939093013593505050565b6000806040838503121561064a57600080fd5b50508035926020909101359150565b634e487b7160e01b600052601160045260246000fd5b808202811582820484141761068657610686610659565b92915050565b808201808211156106865761068661065956fea2646970667358221220fe7fbb4a2e4d8c480bd04a7d4393a77cc98366f88b711a8b562f1934749eddb664736f6c634300081c0033",
  "linkReferences": {},
  "deployedLinkReferences": {}
}